:0300000002046691
:0C046600787FE4F6D8FD7581250204AD16
:10065400021003E8021E000302220003021200013A
:0C06640002140001020E00010208000058
:1006290020B4187508007509011206711206B6C2C0
:1006390090E4F50EF50F1202C380FB20B5E2120615
:0B064900711206B6C2901202C380FBC3
:1002C3001205FBE4FFFE7DA07C40AB0DAA0CA90B3D
:1002D300A80A1201B44044E4FFFE7DB47C41AB0D97
:1002E300AA0CA90BA80A1201B46002502EE5154509
:1002F300146028B2951205857FF07E0012068912DC
:10030300054A7F867E011206891205C07FAE7E01F3
:1003130012068912054AE4F514F51520A00C20A154
:100323000920A20620A30312054A30A10C30A2091A
:1003330012054A30A10320A2FA30A11820A01520EB
:10034300A21220A30F1205C030A00920A10620A2EB
:100353000330A3F420A11820A11530A21220A30F6B
:1003630012058530A00920A10620A20330A3F43092
:10037300A01320A21020A30D1205C07F1E7E001221
:10038300068930A1FD30A31320A01020A10D120572
:0C039300857F1E7E0012068930A2FD222C
:03000B0002039F4E
:10039F00C0E0C0F0C083C082C0D075D000C000C024
:1003AF0001C002C003C004C005C006C007C28C75DF
:1003BF008AAE758CFB0511E51170020510C3E510AF
:1003CF00648094994008E50F450E6002C2A5C3E50D
:1003DF00119464E51064809499400AD290750E00D0
:1003EF00750F00D2A5C3E511949CE510648094CAE3
:1003FF00400AE50945087004C290C2A5C3E5106420
:10040F008094CB4002D2A5C3E5119470E5106480AF
:10041F0094E24008D2A5750E00750F000521E52165
:10042F00700205201205FBC3E521940AE5206480C4
:10043F0094804006752000752100D28CD007D0061D
:10044F00D005D004D003D002D001D000D0D0D082BC
:07045F00D083D0F0D0E032A1
:0806DD007FC37E8ADEFEDFFC14
:0106E50022F2
:10067100438E805389F0438901758AAE758CFBC224
:080681008DD2A9D2AFD28C2268
:1005FB00C3E521951FE51E6480F8E52064809850C3
:10060B0004D2968002C296C3E5219523E52264802D
:0E061B00F8E5206480985003D29722C29722FF
:1006A100C291D292C293D294751E00751F05752214
:0506B100007523052285
:10054A00D291C292D293C294751E00751F0675226B
:10055A0000752306E50F450E6020051FE51F700292
:10056A00051E0523E52370020522051FE51F7002FB
:0B057A00051E0523E523700205222268
:10058500D291C292C293D294752200752307751E2B
:1005950000751F06E50F450E6020051FE51F70025B
:1005A500051E0523E52370020522051FE51F7002C0
:0B05B500051E0523E52370020522222D
:1005C000C291D292D293C294752200752306751EF1
:1005D00000751F07E50F450E6020051FE51F70021F
:1005E000051E0523E52370020522051FE51F700285
:0B05F000051E0523E5237002052222F2
:0A06D300E4F51EF51FF522F52322C1
:04068900EF4E6013BD
:10068D007524027525EFD525FDD524FAEF1F70ECE5
:01069D001E3E
:03069E0080E922CE
:0C06C6007F0D7E9C7D53DDFEDEFCDFFA24
:0106D2002205
:040003007F06DFFE97
:0100070022D6
:1006B600538EBF53890F438910E4F58B758DFF2246
:1004F200D2A67F0A7E00120689C2A6E4F58BF58D8C
:1005020030A7FDD28E20A7FDC28EAF8DEFFEAD8B40
:100512007C00E42DFDEC3EFC1202328F1D8E1C8D00
:100522001B8C1A7F957E437D0B7C3DAB1DAA1CA9BB
:100532001BA81A12000EE4FBFAF978401201178F79
:080542000D8E0C8D0B8C0A22BA
:0406E6007F02DFFEB2
:0106EA0022ED
:10000E00EC4D6011E8497017ED33EC3304600DE4EC
:10001E00FCFFFEFD22E933E8330470F80202A01261
:10002E00026B58046009E4CC248150062850090262
:10003E0002AA2840030202A7C0E0EB4A7044B9802E
:10004E0006D0E0FB020296EF4E701CBD8008EBFF5F
:10005E00EAFEE9FD80EBE98DF0A4FEE5F00200F783
:10006E00E9CDF9EAFEEBFFEF89F0A4FCE5F0CE89CD
:10007E00F0A42EFFE435F0CD89F0A42DFEE435F08A
:10008E008067EF4E7005BD80D780C3EF8BF0A4ACB8
:10009E00F0EE8BF0A42CFCE435F0F8EF8AF0A42CF3
:1000AE00E5F038FCE433CB8DF0A42CFCE5F03BF806
:1000BE00EE8AF0A42CFCE5F038F8E433CF89F0A4F6
:1000CE002CFCE5F038CF3400CE89F0A42FFFE5F0FC
:1000DE003EFEE433C98DF0A42EFEE5F039CD8AF054
:1000EE00A42FFFE5F03EFEE43DFD33D0E0FB5007CC
:1000FE000BBB000F0202AAEC2CFCEF33FFEE33FE1B
:06010E00ED33FD02028248
:100114000202AAEC5D046005E8590470030202A01F
:1001240012026B580460F6EC4860F2EC7004FDFEB9
:10013400FF22C860DB2481C85009C39860025006BE
:100144000202A79850CAF582E9294B4A7005AB828E
:1001540002029675F0007C1A7880C3EF9BEE9AED4C
:1001640099400DC3EF9BFFEE9AFEED99FDE842F036
:10017400DC23ACF0D0E0FFD0E0FED0E0FDAB822089
:10018400E7101BEB60BAEC2CFCEF33FFEE33FEED13
:1001940033FD020282E803F830E705C0F075F00091
:1001A400EF2FFFEE33FEED33FD40B830E7C280AAF7
:1001B40074F8CC6480CCC86480C8F58204604FC3F2
:1001C400EB9FF5F0EA9E42F0E99D42F0E89C45F091
:1001D400603C501DE5825FFFE582D313CB5BCBF41B
:1001E4002B5582FB50280ABA002409B90020088044
:1001F4001DE5825BFBE582D313CF5FCFF4C3132FDE
:100204005582FF50090EBE00050DBD00010CC3EB65
:100214009FF5F0EA9E42F0E99D42F0E89C45F060CB
:0902240007CC4820E701B3EC22ED
:10022D0075F020800E75F010800575F0087D007E4C
:10023D00007F003392D530D5031202B5EC33401058
:10024D00EF33FFEE33FEED33FDEC33FCD5F0ED2255
:0E025D00E5F0247EA2D513CC92E7CDCEFF2291
:10026B00E9D2E7C933E833F892D5EDD2E7CD33ECD9
:07027B0033FC5002B2D52252
:10028200EC30E7100FBF000C0EBE00080DBD0004DD
:100292000BEB6014A2D5EB13FCED92E7FD2274FF89
:1002A200FCFDFEFF22E480F8A2D574FF13FC7D80E2
:0302B200E480EFF6
:10047200020629E493A3F8E493A34003F68001F271
:1004820008DFF48029E493A3F85407240CC8C3338B
:10049200C4540F4420C8834004F456800146F6DF5A
:1004A200E4800B0102040810204080900654E47E90
:1004B200019360BCA3FF543F30E509541FFEE4934F
:1004C200A360010ECF54C025E060A840B8E493A316
:1004D200FAE493A3F8E493A3C8C582C8CAC583CA41
:1004E200F0A3C8C582C8CAC583CADFE9DEE780BEF9
:010670000089
:0E02B500C3E49FFFE49EFEE49DFDE49CFC225A
:00000001FF
